:100000000C9462000C9442030C941B030C948A0021
:100010000C948A000C948A000C948A000C948A0038
:100020000C948A000C948A000C948A000C948A0028
:100030000C948A000C948A000C948A000C948A0018
:100040000C94D1020C948A000C949F020C947902B7
:100050000C948A000C948A000C948A000C948A00F8
:100060000C948A000C948A000000000023002600F3
:10007000290000000008000201000003040700003E
:1000800000000000000000000000250028002B00F8
:1000900000000000240027002A00040404040404D3
:1000A0000404020202020202030303030303010227
:1000B00004081020408001020408102001020408F6
:1000C0001020690311241FBECFEFD8E0DEBFCDBFE3
:1000D00011E0A0E0B1E0E4E0FFE002C005900D9285
:1000E000AA32B107D9F721E0AAE2B1E001C01D921E
:1000F000A63DB207E1F710E0C2E6D0E004C02197C8
:10010000FE010E947A07C136D107C9F70E94A503F4
:100110000C9480070C940000CF93DF9390E0FC01D7
:10012000E255FF4F249186569F4FFC01849188230E
:10013000C1F090E0880F991FFC01E057FF4FC59177
:10014000D491FC01EA57FF4FA591B4919FB7F89461
:100150008881E22FE0958E2388838C91E823EC93AD
:100160009FBFDF91CF910895AF92BF92CF92DF9260
:10017000EF92FF920F931F93CF93DF936C017B015C
:100180008B01040F151FEB015E01AE18BF08C017ED
:10019000D10759F06991D601ED91FC910190F08160
:1001A000E02DC6010995892B79F7C501DF91CF9123
:1001B0001F910F91FF90EF90DF90CF90BF90AF9085
:1001C0000895FC01538D448D252F30E0842F90E05D
:1001D000821B930B541710F0CF9608950197089542
:1001E000FC01918D828D981761F0A28DAE0FBF2F0B
:1001F000B11D5D968C91928D9F5F9F73928F90E061
:1002000008958FEF9FEF0895FC01918D828D9817CF
:1002100031F0828DE80FF11D858D90E008958FEF0C
:100220009FEF0895FC01918D228D892F90E0805CD5
:100230009F4F821B91098F739927089583E391E063
:100240000E94120121E0892B09F420E0822F0895F9
:1002500080E090E0892B29F00E941E0181110C940E
:1002600000000895FC01A48DA80FB92FB11DA35A59
:10027000BF4F2C91848D90E001968F739927848FC6
:10028000A689B7892C93A089B1898C9183708064E9
:100290008C93938D848D981306C00288F389E02D8A
:1002A00080818F7D80830895EF92FF920F931F933B
:1002B000CF93DF93EC0181E0888F9B8D8C8D981319
:1002C0001AC0E889F989808185FF15C09FB7F89425
:1002D000EE89FF896083E889F98980818370806471
:1002E00080839FBF81E090E0DF91CF911F910F91BC
:1002F000FF90EF900895F62E0B8D10E00F5F1F4FCB
:100300000F731127E02E8C8D8E110CC00FB607FCD9
:10031000FACFE889F989808185FFF5CFCE010E9467
:100320003201F1CFEB8DEC0FFD2FF11DE35AFF4FA2
:10033000F0829FB7F8940B8FEA89FB8980818062F5
:10034000CFCFCF93DF93EC01888D8823B9F0AA89B2
:10035000BB89E889F9898C9185FD03C0808186FD80
:100360000DC00FB607FCF7CF8C9185FFF2CF8081CF
:1003700085FFEDCFCE010E943201E9CFDF91CF9111
:1003800008950895E5E7F0E08491E1EBF0E0249131
:10039000EDE9F0E0E491EE2309F44BC0882339F055
:1003A000833081F128F5813099F18230A9F1F0E0B4
:1003B000EE0FFF1FE859FF4FA591B491EC916091AA
:1003C0002F017091300180913101909132012E23E3
:1003D00081F120E030E040E85FE30E941C0560937B
:1003E0002F01709330018093310190933201089571
:1003F0008730A9F08830C9F08430C9F68091800038
:100400008F7D03C0809180008F7780938000CFCF55
:1004100084B58F7784BDCBCF84B58F7DFBCF8091A2
:10042000B0008F778093B000C2CF8091B0008F7DF5
:10043000F9CF20E030E040E85FE360912F01709158
:10044000300180913101909132010E941D05C7CF8A
:10045000FC0101900020E9F73197AF01481B590BCF
:10046000BC0183E391E00C94B4008F929F92AF9211
:10047000BF920F931F93CF93DF93CDB7DEB7A197B2
:100480000FB6F894DEBF0FBECDBF19A2423008F4FC
:100490004AE08E010F5D1F4F842E912CB12CA12CB0
:1004A000A50194010E945807E62FB901CA01EA305C
:1004B000F4F4E05DD801EE938D01232B242B252B42
:1004C00079F790E080E0109719F0CD010E942802A2
:1004D000A1960FB6F894DEBF0FBECDBFDF91CF91CE
:1004E0001F910F91BF90AF909F908F900895E95CFE
:1004F000E1CF1F920F920FB60F9211242F933F93CB
:100500004F935F936F937F938F939F93AF93BF931B
:10051000EF93FF9383E391E00E943201FF91EF910B
:10052000BF91AF919F918F917F916F915F914F910B
:100530003F912F910F900FBE0F901F9018951F9213
:100540000F920FB60F9211242F938F939F93EF93D7
:10055000FF93E0914301F09144018081E0914901D2
:10056000F0914A0182FD1BC0908180914C018F5F08
:100570008F7320914D01821741F0E0914C01F0E022
:10058000ED5CFE4F958F80934C01FF91EF919F9111
:100590008F912F910F900FBE0F901F901895808113
:1005A000F4CF1F920F920FB60F9211242F933F9307
:1005B0008F939F93AF93BF938091D0019091D1017E
:1005C000A091D201B091D30130912E0123E0230FED
:1005D0002D3758F50196A11DB11D20932E01809352
:1005E000D0019093D101A093D201B093D301809117
:1005F0002A0190912B01A0912C01B0912D0101961F
:10060000A11DB11D80932A0190932B01A0932C0171
:10061000B0932D01BF91AF919F918F913F912F91F9
:100620000F900FBE0F901F90189526E8230F02968B
:10063000A11DB11DD2CF1F920F920FB60F921124A0
:100640002F933F934F935F936F937F938F939F93DA
:10065000AF93BF93EF93FF93E0910201F0910301F9
:100660000995FF91EF91BF91AF919F918F917F91EC
:100670006F915F914F913F912F910F900FBE0F900F
:100680001F9018951F920F920FB60F9211242F935F
:100690003F934F935F936F937F938F939F93AF930A
:1006A000BF93EF93FF93E0910001F0910101099551
:1006B000FF91EF91BF91AF919F918F917F916F913A
:1006C0005F914F913F912F910F900FBE0F901F9010
:1006D0001895E3E3F1E01382128288EE93E0A0E044
:1006E000B0E084839583A683B78388E091E091830B
:1006F000808385EC90E09587848784EC90E09787F1
:10070000868780EC90E0918B808B81EC90E0938BDE
:10071000828B82EC90E0958B848B86EC90E0978BBB
:10072000868B118E128E138E148E2FB7F8948091B3
:10073000D0019091D101A091D201B091D3012FBFEE
:100740009093D5018093D4010895789484B5826004
:1007500084BD84B5816084BD85B5826085BD85B565
:10076000816085BD80916E00816080936E001092E3
:10077000810080918100826080938100809181005E
:1007800081608093810080918000816080938000EF
:100790008091B10084608093B1008091B00081604D
:1007A0008093B00080917A00846080937A00809179
:1007B0007A00826080937A0080917A0081608093D1
:1007C0007A0080917A00806880937A001092C1004C
:1007D000E0914301F091440182E08083E0913F0188
:1007E000F09140011082E0914101F09142018FECC3
:1007F000808310924B01E0914701F091480186E01F
:100800008083E0914501F091460180818061808381
:10081000E0914501F0914601808188608083E091FC
:100820004501F0914601808180688083E091450117
:10083000F091460180818F7D808382EC91E09093DE
:1008400001018093000180916900836080936900B9
:10085000E89A82E00E948C0083E00E948C00C0E055
:10086000D0E08FB7F8944090D0015090D1016090C3
:10087000D2017090D3018FBF8091D4019091D501A6
:100880009201281B390BC901893E9340B4F120E045
:1008900030E048E453E460912F0170913001809181
:1008A0003101909132010E948E0520E030E040E756
:1008B00052E40E94E6066B017C014B015C01109240
:1008C0002F0110923001109231011092320150929A
:1008D000D5014092D401AC019B010E9453078823AB
:1008E000B9F086E191E00E94280282E291E00E9444
:1008F000280287E291E00E942802209709F4B1CFF4
:100900000E941E01882309F4ACCF0E940000A9CFE9
:1009100026013701E89477F82FEF3FEF4FE75FE7C5
:10092000C301B2010E94530781110DC02FEF3FEFA9
:100930004FE75FE7C301B2010E94890518161CF456
:100940008AE191E0D0CF2FEF3FEF4FE75FE4C7019F
:10095000B6010E94E10618161CF48EE191E0C3CFA7
:100960002FEF3FEF4FE75FECC701B6010E9489050B
:1009700087FDF3CF20E030E0A901C701B6010E9456
:10098000890587FF0BC06DE283E391E00E9454016B
:1009900046015701B7FAB094B7F8B0942AE037EDA2
:1009A00043EA5BE3C501B4010E941D054B015C01F4
:1009B0000E9400066B017C010E942F069B01AC0186
:1009C000C501B4010E941C054B015C014AE0C7014E
:1009D000B6010E9435026EE283E391E00E94540169
:1009E00020E030E040E251E4C501B4010E94E60697
:1009F0004B015C010E9400066B01F12CE12C4AE0E6
:100A0000C701B6010E943502C701B6010E942F0638
:100A10009B01AC01C501B4010E941C0520E030E03F
:100A200040E251E40E94E6060E94000690E080E069
:100A30004AE00E94350259CF5058BB27AA270E948E
:100A400034050C94A7060E94990638F00E94A0066F
:100A500020F039F49F3F19F426F40C9496060EF416
:100A6000E095E7FB0C949006E92F0E94B80658F336
:100A7000BA17620773078407950720F079F4A6F583
:100A80000C94DA060EF4E0950B2EBA2FA02D0B0174
:100A9000B90190010C01CA01A0011124FF27591BC3
:100AA00099F0593F50F4503E68F11A16F040A22FC9
:100AB000232F342F4427585FF3CF4695379527953A
:100AC000A795F0405395C9F77EF41F16BA0B620B39
:100AD000730B840BBAF09150A1F0FF0FBB1F661F80
:100AE000771F881FC2F70EC0BA0F621F731F841FC3
:100AF00048F4879577956795B795F7959E3F08F0E9
:100B0000B0CF9395880F08F09927EE0F97958795AA
:100B100008950E946C0608F481E008950E94A205E1
:100B20000C94A7060E94A00658F00E94990640F077
:100B300029F45F3F29F00C94900651110C94DB06C8
:100B40000C9496060E94B80668F39923B1F35523D6
:100B500091F3951B550BBB27AA27621773078407D0
:100B600038F09F5F5F4F220F331F441FAA1FA9F366
:100B700035D00E2E3AF0E0E832D091505040E69554
:100B8000001CCAF72BD0FE2F29D0660F771F881FB5
:100B9000BB1F261737074807AB07B0E809F0BB0BA8
:100BA000802DBF01FF2793585F4F3AF09E3F5105BC
:100BB00078F00C9490060C94DB065F3FE4F3983ECB
:100BC000D4F3869577956795B795F7959F5FC9F7A5
:100BD000880F911D9695879597F90895E1E0660F26
:100BE000771F881FBB1F621773078407BA0720F09F
:100BF000621B730B840BBA0BEE1F88F7E095089508
:100C00000E94C00688F09F5798F0B92F9927B751D6
:100C1000B0F0E1F0660F771F881F991F1AF0BA95A0
:100C2000C9F714C0B13091F00E94DA06B1E008951E
:100C30000C94DA06672F782F8827B85F39F0B93F10
:100C4000CCF3869577956795B395D9F73EF4909553
:100C50008095709561957F4F8F4F9F4F0895E894D1
:100C600009C097FB3EF490958095709561957F4FF4
:100C70008F4F9F4F9923A9F0F92F96E9BB279395A2
:100C8000F695879577956795B795F111F8CFFAF4B2
:100C9000BB0F11F460FF1BC06F5F7F4F8F4F9F4FE3
:100CA00016C0882311F096E911C0772321F09EE841
:100CB000872F762F05C0662371F096E8862F70E0A7
:100CC00060E02AF09A95660F771F881FDAF7880F81
:100CD0009695879597F90895990F0008550FAA0BD7
:100CE000E0E8FEEF16161706E807F907C0F012163F
:100CF0001306E407F50798F0621B730B840B950B42
:100D000039F40A2661F0232B242B252B21F4089596
:100D10000A2609F4A140A6958FEF811D811D089533
:100D200097F99F6780E870E060E008959FEF80EC9E
:100D3000089500240A941616170618060906089541
:100D400000240A9412161306140605060895092EA7
:100D50000394000C11F4882352F0BB0F40F4BF2B16
:100D600011F460FF04C06F5F7F4F8F4F9F4F089556
:100D700057FD9058440F551F59F05F3F71F047954C
:100D8000880F97FB991F61F09F3F79F08795089531
:100D9000121613061406551FF2CF4695F1DF08C050
:100DA000161617061806991FF1CF8695710561056D
:100DB00008940895E894BB2766277727CB0197F915
:100DC00008950E946C0608F48FEF08950E94F906BA
:100DD0000C94A7060E94990638F00E94A00620F005
:100DE000952311F00C9490060C94960611240C9403
:100DF000DB060E94B80670F3959FC1F3950F50E093
:100E0000551F629FF001729FBB27F00DB11D639FBC
:100E1000AA27F00DB11DAA1F649F6627B00DA11D62
:100E2000661F829F2227B00DA11D621F739FB00D08
:100E3000A11D621F839FA00D611D221F749F332778
:100E4000A00D611D231F849F600D211D822F762F11
:100E50006A2F11249F5750409AF0F1F088234AF0EE
:100E6000EE0FFF1FBB1F661F771F881F915050405A
:100E7000A9F79E3F510580F00C9490060C94DB0678
:100E80005F3FE4F3983ED4F3869577956795B795E1
:100E9000F795E7959F5FC1F7FE2B880F911D9695FB
:100EA000879597F908950E946C06880B990B089511
:100EB000A1E21A2EAA1BBB1BFD010DC0AA1FBB1F5E
:100EC000EE1FFF1FA217B307E407F50720F0A21BD0
:100ED000B30BE40BF50B661F771F881F991F1A943D
:100EE00069F760957095809590959B01AC01BD0167
:100EF000CF010895EE0FFF1F0590F491E02D0994A6
:040F0000F894FFCF93
:100F0400C101C101000000005401B400E100A101CD
:100F14001201F00004016E616E00696E66006F7666
:0A0F240066002072706D000D0A00D7
:00000001FF
